S00E00004F535F4150502E7372656334
S11300000C942A000C9447000C9447000C9447006D
S11300100C9447000C9447000C9447000C94470040
S11300200C9447000C9447000C9447000C940D0169
S11300300C9447000C9447000C9447000C94470020
S11300400C9447000C9447000C9447000C94470010
S11300500C94470011241FBECFE5D8E0DEBFCDBF0E
S113006010E0A0E6B0E0E6ECF2E002C005900D92EC
S1130070AA36B107D9F710E0AAE6B0E001C01D9294
S1130080AE37B107E1F70E9449000C9461010C946A
S113009000000E94FA0080EE81BB78940E94BF00A9
S11300A0FDCF8091720090917300A0917400B09183
S11300B0750084319105A105B10508F097988091E8
S11300C06E0090916F00A0917000B0917100843126
S11300D09105A105B10508F0969880916A00909168
S11300E06B00A0916C00B0916D0084319105A10565
S11300F0B10508F09598089580917C00813059F4F9
S1130100979A10927C0010927200109273001092D1
S113011074001092750080917A00813059F4969A97
S113012010927A0010926E0010926F00109270007C
S11301301092710080917D00813059F4959A10924B
S11301407D0010926A0010926B0010926C00109265
S11301506D000895809B03C081E080937C0080B390
S1130160869580FF03C081E080937A0080B38695F2
S1130170869580FF03C081E080937D0008950F93EE
S11301801F93CF93DF9310927B00C0E000E610E052
S11301906091760070917700809178009091790059
S11301A0D0E0FE01EE0FFF1FEC0FFD1FE00FF11F6B
S11301B0228130E040E050E00E943F01DC01CB01AD
S11301C00097A105B10551F4CE01880F991FC80FFE
S11301D0D91FC00FD11FE881F9810995C0917B0017
S11301E0CF5FC0937B00C33098F2DF91CF911F9112
S11301F00F91089585E883BF89B7816089BF80E83E
S11302008FBF089583B78D6883BF89B7826089BF24
S113021080E88FBF87EC8CBF08951F920F920FB6B2
S11302200F9211248F939F93809176009091770081
S1130230019690937700809376008091720090915C
S113024073000196909373008093720080916E0006
S113025090916F00019690936F0080936E0080914F
S11302606A0090916B00019690936B0080936A00F2
S11302709F918F910F900FBE0F901F901895A1E240
S11302801A2EAA1BBB1BFD010DC0AA1FBB1FEE1F0C
S1130290FF1FA217B307E407F50720F0A21BB30B57
S11302A0E40BF50B661F771F881F991F1A9469F7D3
S11302B060957095809590959B01AC01BD01CF012F
S10902C00895F894FFCF3D
S10D02C6AA00027C000B51000C009A
S9030000FC
